{
  "abi": [
    {
      "inputs": [
        {
          "internalType": "string",
          "name": "_name",
          "type": "string"
        },
        {
          "internalType": "string",
          "name": "_symbol",
          "type": "string"
        }
      ],
      "stateMutability": "nonpayable",
      "type": "constructor"
    },
    {
      "anonymous": false,
      "inputs": [
        {
          "indexed": true,
          "internalType": "address",
          "name": "account",
          "type": "address"
        },
        {
          "indexed": true,
          "internalType": "address",
          "name": "sender",
          "type": "address"
        }
      ],
      "name": "AdminApproved",
      "type": "event"
    },
    {
      "anonymous": false,
      "inputs": [
        {
          "indexed": true,
          "internalType": "address",
          "name": "account",
          "type": "address"
        },
        {
          "indexed": true,
          "internalType": "address",
          "name": "sender",
          "type": "address"
        }
      ],
      "name": "AdminRevoked",
      "type": "event"
    },
    {
      "anonymous": false,
      "inputs": [
        {
          "indexed": true,
          "internalType": "address",
          "name": "owner",
          "type": "address"
        },
        {
          "indexed": true,
          "internalType": "address",
          "name": "approved",
          "type": "address"
        },
        {
          "indexed": true,
          "internalType": "uint256",
          "name": "tokenId",
          "type": "uint256"
        }
      ],
      "name": "Approval",
      "type": "event"
    },
    {
      "anonymous": false,
      "inputs": [
        {
          "indexed": true,
          "internalType": "address",
          "name": "owner",
          "type": "address"
        },
        {
          "indexed": true,
          "internalType": "address",
          "name": "operator",
          "type": "address"
        },
        {
          "indexed": false,
          "internalType": "bool",
          "name": "approved",
          "type": "bool"
        }
      ],
      "name": "ApprovalForAll",
      "type": "event"
    },
    {
      "anonymous": false,
      "inputs": [
        {
          "indexed": false,
          "internalType": "address payable[]",
          "name": "receivers",
          "type": "address[]"
        },
        {
          "indexed": false,
          "internalType": "uint256[]",
          "name": "basisPoints",
          "type": "uint256[]"
        }
      ],
      "name": "DefaultRoyaltiesUpdated",
      "type": "event"
    },
    {
      "anonymous": false,
      "inputs": [
        {
          "indexed": true,
          "internalType": "address",
          "name": "extension",
          "type": "address"
        },
        {
          "indexed": false,
          "internalType": "bool",
          "name": "enabled",
          "type": "bool"
        }
      ],
      "name": "ExtensionApproveTransferUpdated",
      "type": "event"
    },
    {
      "anonymous": false,
      "inputs": [
        {
          "indexed": true,
          "internalType": "address",
          "name": "extension",
          "type": "address"
        },
        {
          "indexed": true,
          "internalType": "address",
          "name": "sender",
          "type": "address"
        }
      ],
      "name": "ExtensionBlacklisted",
      "type": "event"
    },
    {
      "anonymous": false,
      "inputs": [
        {
          "indexed": true,
          "internalType": "address",
          "name": "extension",
          "type": "address"
        },
        {
          "indexed": true,
          "internalType": "address",
          "name": "sender",
          "type": "address"
        }
      ],
      "name": "ExtensionRegistered",
      "type": "event"
    },
    {
      "anonymous": false,
      "inputs": [
        {
          "indexed": true,
          "internalType": "address",
          "name": "extension",
          "type": "address"
        },
        {
          "indexed": false,
          "internalType": "address payable[]",
          "name": "receivers",
          "type": "address[]"
        },
        {
          "indexed": false,
          "internalType": "uint256[]",
          "name": "basisPoints",
          "type": "uint256[]"
        }
      ],
      "name": "ExtensionRoyaltiesUpdated",
      "type": "event"
    },
    {
      "anonymous": false,
      "inputs": [
        {
          "indexed": true,
          "internalType": "address",
          "name": "extension",
          "type": "address"
        },
        {
          "indexed": true,
          "internalType": "address",
          "name": "sender",
          "type": "address"
        }
      ],
      "name": "ExtensionUnregistered",
      "type": "event"
    },
    {
      "anonymous": false,
      "inputs": [
        {
          "indexed": true,
          "internalType": "address",
          "name": "extension",
          "type": "address"
        },
        {
          "indexed": true,
          "internalType": "address",
          "name": "permissions",
          "type": "address"
        },
        {
          "indexed": true,
          "internalType": "address",
          "name": "sender",
          "type": "address"
        }
      ],
      "name": "MintPermissionsUpdated",
      "type": "event"
    },
    {
      "anonymous": false,
      "inputs": [
        {
          "indexed": true,
          "internalType": "address",
          "name": "previousOwner",
          "type": "address"
        },
        {
          "indexed": true,
          "internalType": "address",
          "name": "newOwner",
          "type": "address"
        }
      ],
      "name": "OwnershipTransferred",
      "type": "event"
    },
    {
      "anonymous": false,
      "inputs": [
        {
          "indexed": true,
          "internalType": "uint256",
          "name": "tokenId",
          "type": "uint256"
        },
        {
          "indexed": false,
          "internalType": "address payable[]",
          "name": "receivers",
          "type": "address[]"
        },
        {
          "indexed": false,
          "internalType": "uint256[]",
          "name": "basisPoints",
          "type": "uint256[]"
        }
      ],
      "name": "RoyaltiesUpdated",
      "type": "event"
    },
    {
      "anonymous": false,
      "inputs": [
        {
          "indexed": true,
          "internalType": "address",
          "name": "from",
          "type": "address"
        },
        {
          "indexed": true,
          "internalType": "address",
          "name": "to",
          "type": "address"
        },
        {
          "indexed": true,
          "internalType": "uint256",
          "name": "tokenId",
          "type": "uint256"
        }
      ],
      "name": "Transfer",
      "type": "event"
    },
    {
      "inputs": [
        {
          "internalType": "address",
          "name": "to",
          "type": "address"
        },
        {
          "internalType": "uint256",
          "name": "tokenId",
          "type": "uint256"
        }
      ],
      "name": "approve",
      "outputs": [],
      "stateMutability": "nonpayable",
      "type": "function"
    },
    {
      "inputs": [
        {
          "internalType": "address",
          "name": "admin",
          "type": "address"
        }
      ],
      "name": "approveAdmin",
      "outputs": [],
      "stateMutability": "nonpayable",
      "type": "function"
    },
    {
      "inputs": [
        {
          "internalType": "address",
          "name": "owner",
          "type": "address"
        }
      ],
      "name": "balanceOf",
      "outputs": [
        {
          "internalType": "uint256",
          "name": "",
          "type": "uint256"
        }
      ],
      "stateMutability": "view",
      "type": "function"
    },
    {
      "inputs": [
        {
          "internalType": "address",
          "name": "extension",
          "type": "address"
        }
      ],
      "name": "blacklistExtension",
      "outputs": [],
      "stateMutability": "nonpayable",
      "type": "function"
    },
    {
      "inputs": [
        {
          "internalType": "uint256",
          "name": "tokenId",
          "type": "uint256"
        }
      ],
      "name": "burn",
      "outputs": [],
      "stateMutability": "nonpayable",
      "type": "function"
    },
    {
      "inputs": [],
      "name": "getAdmins",
      "outputs": [
        {
          "internalType": "address[]",
          "name": "admins",
          "type": "address[]"
        }
      ],
      "stateMutability": "view",
      "type": "function"
    },
    {
      "inputs": [
        {
          "internalType": "uint256",
          "name": "tokenId",
          "type": "uint256"
        }
      ],
      "name": "getApproved",
      "outputs": [
        {
          "internalType": "address",
          "name": "",
          "type": "address"
        }
      ],
      "stateMutability": "view",
      "type": "function"
    },
    {
      "inputs": [],
      "name": "getExtensions",
      "outputs": [
        {
          "internalType": "address[]",
          "name": "extensions",
          "type": "address[]"
        }
      ],
      "stateMutability": "view",
      "type": "function"
    },
    {
      "inputs": [
        {
          "internalType": "uint256",
          "name": "tokenId",
          "type": "uint256"
        }
      ],
      "name": "getFeeBps",
      "outputs": [
        {
          "internalType": "uint256[]",
          "name": "",
          "type": "uint256[]"
        }
      ],
      "stateMutability": "view",
      "type": "function"
    },
    {
      "inputs": [
        {
          "internalType": "uint256",
          "name": "tokenId",
          "type": "uint256"
        }
      ],
      "name": "getFeeRecipients",
      "outputs": [
        {
          "internalType": "address payable[]",
          "name": "",
          "type": "address[]"
        }
      ],
      "stateMutability": "view",
      "type": "function"
    },
    {
      "inputs": [
        {
          "internalType": "uint256",
          "name": "tokenId",
          "type": "uint256"
        }
      ],
      "name": "getFees",
      "outputs": [
        {
          "internalType": "address payable[]",
          "name": "",
          "type": "address[]"
        },
        {
          "internalType": "uint256[]",
          "name": "",
          "type": "uint256[]"
        }
      ],
      "stateMutability": "view",
      "type": "function"
    },
    {
      "inputs": [
        {
          "internalType": "uint256",
          "name": "tokenId",
          "type": "uint256"
        }
      ],
      "name": "getRoyalties",
      "outputs": [
        {
          "internalType": "address payable[]",
          "name": "",
          "type": "address[]"
        },
        {
          "internalType": "uint256[]",
          "name": "",
          "type": "uint256[]"
        }
      ],
      "stateMutability": "view",
      "type": "function"
    },
    {
      "inputs": [
        {
          "internalType": "address",
          "name": "admin",
          "type": "address"
        }
      ],
      "name": "isAdmin",
      "outputs": [
        {
          "internalType": "bool",
          "name": "",
          "type": "bool"
        }
      ],
      "stateMutability": "view",
      "type": "function"
    },
    {
      "inputs": [
        {
          "internalType": "address",
          "name": "owner",
          "type": "address"
        },
        {
          "internalType": "address",
          "name": "operator",
          "type": "address"
        }
      ],
      "name": "isApprovedForAll",
      "outputs": [
        {
          "internalType": "bool",
          "name": "",
          "type": "bool"
        }
      ],
      "stateMutability": "view",
      "type": "function"
    },
    {
      "inputs": [
        {
          "internalType": "address",
          "name": "to",
          "type": "address"
        }
      ],
      "name": "mintBase",
      "outputs": [
        {
          "internalType": "uint256",
          "name": "",
          "type": "uint256"
        }
      ],
      "stateMutability": "nonpayable",
      "type": "function"
    },
    {
      "inputs": [
        {
          "internalType": "address",
          "name": "to",
          "type": "address"
        },
        {
          "internalType": "string",
          "name": "uri",
          "type": "string"
        }
      ],
      "name": "mintBase",
      "outputs": [
        {
          "internalType": "uint256",
          "name": "",
          "type": "uint256"
        }
      ],
      "stateMutability": "nonpayable",
      "type": "function"
    },
    {
      "inputs": [
        {
          "internalType": "address",
          "name": "to",
          "type": "address"
        },
        {
          "internalType": "string[]",
          "name": "uris",
          "type": "string[]"
        }
      ],
      "name": "mintBaseBatch",
      "outputs": [
        {
          "internalType": "uint256[]",
          "name": "tokenIds",
          "type": "uint256[]"
        }
      ],
      "stateMutability": "nonpayable",
      "type": "function"
    },
    {
      "inputs": [
        {
          "internalType": "address",
          "name": "to",
          "type": "address"
        },
        {
          "internalType": "uint16",
          "name": "count",
          "type": "uint16"
        }
      ],
      "name": "mintBaseBatch",
      "outputs": [
        {
          "internalType": "uint256[]",
          "name": "tokenIds",
          "type": "uint256[]"
        }
      ],
      "stateMutability": "nonpayable",
      "type": "function"
    },
    {
      "inputs": [
        {
          "internalType": "address",
          "name": "to",
          "type": "address"
        }
      ],
      "name": "mintExtension",
      "outputs": [
        {
          "internalType": "uint256",
          "name": "",
          "type": "uint256"
        }
      ],
      "stateMutability": "nonpayable",
      "type": "function"
    },
    {
      "inputs": [
        {
          "internalType": "address",
          "name": "to",
          "type": "address"
        },
        {
          "internalType": "string",
          "name": "uri",
          "type": "string"
        }
      ],
      "name": "mintExtension",
      "outputs": [
        {
          "internalType": "uint256",
          "name": "",
          "type": "uint256"
        }
      ],
      "stateMutability": "nonpayable",
      "type": "function"
    },
    {
      "inputs": [
        {
          "internalType": "address",
          "name": "to",
          "type": "address"
        },
        {
          "internalType": "string[]",
          "name": "uris",
          "type": "string[]"
        }
      ],
      "name": "mintExtensionBatch",
      "outputs": [
        {
          "internalType": "uint256[]",
          "name": "tokenIds",
          "type": "uint256[]"
        }
      ],
      "stateMutability": "nonpayable",
      "type": "function"
    },
    {
      "inputs": [
        {
          "internalType": "address",
          "name": "to",
          "type": "address"
        },
        {
          "internalType": "uint16",
          "name": "count",
          "type": "uint16"
        }
      ],
      "name": "mintExtensionBatch",
      "outputs": [
        {
          "internalType": "uint256[]",
          "name": "tokenIds",
          "type": "uint256[]"
        }
      ],
      "stateMutability": "nonpayable",
      "type": "function"
    },
    {
      "inputs": [],
      "name": "name",
      "outputs": [
        {
          "internalType": "string",
          "name": "",
          "type": "string"
        }
      ],
      "stateMutability": "view",
      "type": "function"
    },
    {
      "inputs": [],
      "name": "owner",
      "outputs": [
        {
          "internalType": "address",
          "name": "",
          "type": "address"
        }
      ],
      "stateMutability": "view",
      "type": "function"
    },
    {
      "inputs": [
        {
          "internalType": "uint256",
          "name": "tokenId",
          "type": "uint256"
        }
      ],
      "name": "ownerOf",
      "outputs": [
        {
          "internalType": "address",
          "name": "",
          "type": "address"
        }
      ],
      "stateMutability": "view",
      "type": "function"
    },
    {
      "inputs": [
        {
          "internalType": "address",
          "name": "extension",
          "type": "address"
        },
        {
          "internalType": "string",
          "name": "baseURI",
          "type": "string"
        }
      ],
      "name": "registerExtension",
      "outputs": [],
      "stateMutability": "nonpayable",
      "type": "function"
    },
    {
      "inputs": [
        {
          "internalType": "address",
          "name": "extension",
          "type": "address"
        },
        {
          "internalType": "string",
          "name": "baseURI",
          "type": "string"
        },
        {
          "internalType": "bool",
          "name": "baseURIIdentical",
          "type": "bool"
        }
      ],
      "name": "registerExtension",
      "outputs": [],
      "stateMutability": "nonpayable",
      "type": "function"
    },
    {
      "inputs": [],
      "name": "renounceOwnership",
      "outputs": [],
      "stateMutability": "nonpayable",
      "type": "function"
    },
    {
      "inputs": [
        {
          "internalType": "address",
          "name": "admin",
          "type": "address"
        }
      ],
      "name": "revokeAdmin",
      "outputs": [],
      "stateMutability": "nonpayable",
      "type": "function"
    },
    {
      "inputs": [
        {
          "internalType": "uint256",
          "name": "tokenId",
          "type": "uint256"
        },
        {
          "internalType": "uint256",
          "name": "value",
          "type": "uint256"
        }
      ],
      "name": "royaltyInfo",
      "outputs": [
        {
          "internalType": "address",
          "name": "",
          "type": "address"
        },
        {
          "internalType": "uint256",
          "name": "",
          "type": "uint256"
        }
      ],
      "stateMutability": "view",
      "type": "function"
    },
    {
      "inputs": [
        {
          "internalType": "address",
          "name": "from",
          "type": "address"
        },
        {
          "internalType": "address",
          "name": "to",
          "type": "address"
        },
        {
          "internalType": "uint256",
          "name": "tokenId",
          "type": "uint256"
        }
      ],
      "name": "safeTransferFrom",
      "outputs": [],
      "stateMutability": "nonpayable",
      "type": "function"
    },
    {
      "inputs": [
        {
          "internalType": "address",
          "name": "from",
          "type": "address"
        },
        {
          "internalType": "address",
          "name": "to",
          "type": "address"
        },
        {
          "internalType": "uint256",
          "name": "tokenId",
          "type": "uint256"
        },
        {
          "internalType": "bytes",
          "name": "data",
          "type": "bytes"
        }
      ],
      "name": "safeTransferFrom",
      "outputs": [],
      "stateMutability": "nonpayable",
      "type": "function"
    },
    {
      "inputs": [
        {
          "internalType": "address",
          "name": "operator",
          "type": "address"
        },
        {
          "internalType": "bool",
          "name": "approved",
          "type": "bool"
        }
      ],
      "name": "setApprovalForAll",
      "outputs": [],
      "stateMutability": "nonpayable",
      "type": "function"
    },
    {
      "inputs": [
        {
          "internalType": "bool",
          "name": "enabled",
          "type": "bool"
        }
      ],
      "name": "setApproveTransferExtension",
      "outputs": [],
      "stateMutability": "nonpayable",
      "type": "function"
    },
    {
      "inputs": [
        {
          "internalType": "string",
          "name": "uri",
          "type": "string"
        }
      ],
      "name": "setBaseTokenURI",
      "outputs": [],
      "stateMutability": "nonpayable",
      "type": "function"
    },
    {
      "inputs": [
        {
          "internalType": "string",
          "name": "uri",
          "type": "string"
        }
      ],
      "name": "setBaseTokenURIExtension",
      "outputs": [],
      "stateMutability": "nonpayable",
      "type": "function"
    },
    {
      "inputs": [
        {
          "internalType": "string",
          "name": "uri",
          "type": "string"
        },
        {
          "internalType": "bool",
          "name": "identical",
          "type": "bool"
        }
      ],
      "name": "setBaseTokenURIExtension",
      "outputs": [],
      "stateMutability": "nonpayable",
      "type": "function"
    },
    {
      "inputs": [
        {
          "internalType": "address",
          "name": "extension",
          "type": "address"
        },
        {
          "internalType": "address",
          "name": "permissions",
          "type": "address"
        }
      ],
      "name": "setMintPermissions",
      "outputs": [],
      "stateMutability": "nonpayable",
      "type": "function"
    },
    {
      "inputs": [
        {
          "internalType": "uint256",
          "name": "tokenId",
          "type": "uint256"
        },
        {
          "internalType": "address payable[]",
          "name": "receivers",
          "type": "address[]"
        },
        {
          "internalType": "uint256[]",
          "name": "basisPoints",
          "type": "uint256[]"
        }
      ],
      "name": "setRoyalties",
      "outputs": [],
      "stateMutability": "nonpayable",
      "type": "function"
    },
    {
      "inputs": [
        {
          "internalType": "address payable[]",
          "name": "receivers",
          "type": "address[]"
        },
        {
          "internalType": "uint256[]",
          "name": "basisPoints",
          "type": "uint256[]"
        }
      ],
      "name": "setRoyalties",
      "outputs": [],
      "stateMutability": "nonpayable",
      "type": "function"
    },
    {
      "inputs": [
        {
          "internalType": "address",
          "name": "extension",
          "type": "address"
        },
        {
          "internalType": "address payable[]",
          "name": "receivers",
          "type": "address[]"
        },
        {
          "internalType": "uint256[]",
          "name": "basisPoints",
          "type": "uint256[]"
        }
      ],
      "name": "setRoyaltiesExtension",
      "outputs": [],
      "stateMutability": "nonpayable",
      "type": "function"
    },
    {
      "inputs": [
        {
          "internalType": "uint256",
          "name": "tokenId",
          "type": "uint256"
        },
        {
          "internalType": "string",
          "name": "uri",
          "type": "string"
        }
      ],
      "name": "setTokenURI",
      "outputs": [],
      "stateMutability": "nonpayable",
      "type": "function"
    },
    {
      "inputs": [
        {
          "internalType": "uint256[]",
          "name": "tokenIds",
          "type": "uint256[]"
        },
        {
          "internalType": "string[]",
          "name": "uris",
          "type": "string[]"
        }
      ],
      "name": "setTokenURI",
      "outputs": [],
      "stateMutability": "nonpayable",
      "type": "function"
    },
    {
      "inputs": [
        {
          "internalType": "uint256[]",
          "name": "tokenIds",
          "type": "uint256[]"
        },
        {
          "internalType": "string[]",
          "name": "uris",
          "type": "string[]"
        }
      ],
      "name": "setTokenURIExtension",
      "outputs": [],
      "stateMutability": "nonpayable",
      "type": "function"
    },
    {
      "inputs": [
        {
          "internalType": "uint256",
          "name": "tokenId",
          "type": "uint256"
        },
        {
          "internalType": "string",
          "name": "uri",
          "type": "string"
        }
      ],
      "name": "setTokenURIExtension",
      "outputs": [],
      "stateMutability": "nonpayable",
      "type": "function"
    },
    {
      "inputs": [
        {
          "internalType": "string",
          "name": "prefix",
          "type": "string"
        }
      ],
      "name": "setTokenURIPrefix",
      "outputs": [],
      "stateMutability": "nonpayable",
      "type": "function"
    },
    {
      "inputs": [
        {
          "internalType": "string",
          "name": "prefix",
          "type": "string"
        }
      ],
      "name": "setTokenURIPrefixExtension",
      "outputs": [],
      "stateMutability": "nonpayable",
      "type": "function"
    },
    {
      "inputs": [
        {
          "internalType": "bytes4",
          "name": "interfaceId",
          "type": "bytes4"
        }
      ],
      "name": "supportsInterface",
      "outputs": [
        {
          "internalType": "bool",
          "name": "",
          "type": "bool"
        }
      ],
      "stateMutability": "view",
      "type": "function"
    },
    {
      "inputs": [],
      "name": "symbol",
      "outputs": [
        {
          "internalType": "string",
          "name": "",
          "type": "string"
        }
      ],
      "stateMutability": "view",
      "type": "function"
    },
    {
      "inputs": [
        {
          "internalType": "uint256",
          "name": "tokenId",
          "type": "uint256"
        }
      ],
      "name": "tokenExtension",
      "outputs": [
        {
          "internalType": "address",
          "name": "",
          "type": "address"
        }
      ],
      "stateMutability": "view",
      "type": "function"
    },
    {
      "inputs": [
        {
          "internalType": "uint256",
          "name": "tokenId",
          "type": "uint256"
        }
      ],
      "name": "tokenURI",
      "outputs": [
        {
          "internalType": "string",
          "name": "",
          "type": "string"
        }
      ],
      "stateMutability": "view",
      "type": "function"
    },
    {
      "inputs": [
        {
          "internalType": "address",
          "name": "from",
          "type": "address"
        },
        {
          "internalType": "address",
          "name": "to",
          "type": "address"
        },
        {
          "internalType": "uint256",
          "name": "tokenId",
          "type": "uint256"
        }
      ],
      "name": "transferFrom",
      "outputs": [],
      "stateMutability": "nonpayable",
      "type": "function"
    },
    {
      "inputs": [
        {
          "internalType": "address",
          "name": "newOwner",
          "type": "address"
        }
      ],
      "name": "transferOwnership",
      "outputs": [],
      "stateMutability": "nonpayable",
      "type": "function"
    },
    {
      "inputs": [
        {
          "internalType": "address",
          "name": "extension",
          "type": "address"
        }
      ],
      "name": "unregisterExtension",
      "outputs": [],
      "stateMutability": "nonpayable",
      "type": "function"
    }
  ],
  "bytecode": {
    "object": "0x60806040526000600a553480156200001657600080fd5b5060405162005db538038062005db5833981016040819052620000399162000243565b8181620000463362000080565b6001805581516200005f906004906020850190620000d0565b50805162000075906005906020840190620000d0565b5050505050620002e9565b600080546001600160a01b038381166001600160a01b0319831681178455604051919092169283917f8be0079c531659141344cd1fd0a4f28419497f9722a3daafe3b4186f6b6457e09190a35050565b828054620000de90620002ad565b90600052602060002090601f0160209004810192826200010257600085556200014d565b82601f106200011d57805160ff19168380011785556200014d565b828001600101855582156200014d579182015b828111156200014d57825182559160200191906001019062000130565b506200015b9291506200015f565b5090565b5b808211156200015b576000815560010162000160565b634e487b7160e01b600052604160045260246000fd5b600082601f8301126200019e57600080fd5b81516001600160401b0380821115620001bb57620001bb62000176565b604051601f8301601f19908116603f01168101908282118183101715620001e657620001e662000176565b816040528381526020925086838588010111156200020357600080fd5b600091505b8382101562000227578582018301518183018401529082019062000208565b83821115620002395760008385830101525b9695505050505050565b600080604083850312156200025757600080fd5b82516001600160401b03808211156200026f57600080fd5b6200027d868387016200018c565b935060208501519150808211156200029457600080fd5b50620002a3858286016200018c565b9150509250929050565b600181811c90821680620002c257607f821691505b602082108103620002e357634e487b7160e01b600052602260045260246000fd5b50919050565b615abc80620002f96000396000f3fe608060405234801561001057600080fd5b50600436106103625760003560e01c806370a08231116101c8578063ad2d0ddd11610104578063d5a06d4c116100a2578063e985e9c51161007c578063e985e9c51461076f578063f0cdc499146107ab578063f2fde38b146107be578063fe2e1f58146107d157600080fd5b8063d5a06d4c14610702578063e00aab4b14610749578063e92a89f61461075c57600080fd5b8063b9c4d9fb116100de578063b9c4d9fb146106e2578063bb3bafd614610702578063c87b56dd14610723578063ce8aee9d1461073657600080fd5b8063ad2d0ddd146106a9578063b0fe87c9146106bc578063b88d4fde146106cf57600080fd5b806383b7db631161017157806399e0dd7c1161014b57806399e0dd7c1461065d578063a22cb46514610670578063aafb2d4414610683578063ac0c8cfa1461069657600080fd5b806383b7db631461063c5780638da5cb5b1461064457806395d89b411461065557600080fd5b80637884af44116101a25780637884af44146106035780637aa15f161461061657806382dcc0c81461062957600080fd5b806370a08231146105d5578063715018a6146105e857806372ff03d3146105f057600080fd5b80632d345670116102a25780633f0f37f61161024057806361e5bc6b1161021a57806361e5bc6b146105895780636352211e1461059c57806366d1e9d0146105af5780636d73e669146105c257600080fd5b80633f0f37f61461055057806342842e0e1461056357806342966c681461057657600080fd5b806331ae450b1161027c57806331ae450b14610502578063332dd1ae1461051757806338e52e781461052a5780633e6134b81461053d57600080fd5b80632d345670146104c957806330176e13146104dc5780633071a0f9146104ef57600080fd5b8063162094c41161030f57806323b872dd116102e957806323b872dd1461045057806324d7806c146104635780632928ca58146104765780632a55205a1461049757600080fd5b8063162094c41461041757806320e4afe21461042a578063239be3171461043d57600080fd5b8063081812fc11610340578063081812fc146103b9578063095ea7b3146103e45780630ebd4c7f146103f757600080fd5b806301ffc9a71461036757806302e7afb71461038f57806306fdde03146103a4575b600080fd5b61037a610375366004614de3565b6107e4565b60405190151581526020015b60405180910390f35b6103a261039d366004614e15565b610813565b005b6103ac610898565b6040516103869190614e8a565b6103cc6103c7366004614e9d565b61092a565b6040516001600160a01b039091168152602001610386565b6103a26103f2366004614eb6565b6109bf565b61040a610405366004614e9d565b610b0e565b6040516103869190614f1d565b6103a2610425366004614f72565b610bc8565b6103a2610438366004615003565b610c47565b6103cc61044b366004614e9d565b610d27565b6103a261045e36600461507d565b610d88565b61037a610471366004614e15565b610e0f565b610489610484366004614e15565b610e48565b604051908152602001610386565b6104aa6104a53660046150be565b610f1b565b604080516001600160a01b039093168352602083019190915201610386565b6103a26104d7366004614e15565b610f8b565b6103a26104ea3660046150e0565b61103a565b6103a26104fd366004615122565b6110ed565b61050a6111c5565b604051610386919061515e565b6103a26105253660046151ab565b611274565b61040a610538366004615217565b6112f5565b6103a261054b3660046150e0565b611492565b6103a261055e36600461526d565b6114f5565b6103a261057136600461507d565b6115c6565b6103a2610584366004614e9d565b6115e1565b6103a261059736600461531c565b6116b6565b6103cc6105aa366004614e9d565b6117b1565b6103a26105bd3660046150e0565b61183c565b6103a26105d0366004614e15565b61189d565b6104896105e3366004614e15565b611947565b6103a26119e1565b6104896105fe366004614e15565b611a47565b610489610611366004615122565b611b2d565b61040a610624366004615217565b611c46565b6103a26106373660046153dc565b611df4565b61050a611e56565b6000546001600160a01b03166103cc565b6103ac611f01565b6103a261066b3660046150e0565b611f10565b6103a261067e366004615433565b611f8e565b6103a261069136600461531c565b611f99565b6103a26106a436600461546c565b6120b1565b61040a6106b7366004615489565b61221e565b6103a26106ca3660046154be565b61239e565b6103a26106dd366004615526565b61241f565b6106f56106f0366004614e9d565b6124a7565b604051610386919061560e565b610715610710366004614e9d565b61256a565b604051610386929190615621565b6103ac610731366004614e9d565b61268a565b6103a2610744366004614e15565b6126ee565b61040a610757366004615489565b61276b565b6103a261076a366004614f72565b6128c3565b61037a61077d36600461564f565b6001600160a01b03918216600090815260096020908152604080832093909416825291909152205460ff1690565b6103a26107b936600461564f565b612925565b6103a26107cc366004614e15565b6129a3565b6104896107df366004615122565b612a82565b60006107ef82612b72565b806107fe57506107fe82612bb0565b8061080d575061080d82612c1d565b92915050565b336108266000546001600160a01b031690565b6001600160a01b031614806108415750610841600233612c6b565b61088c5760405162461bcd60e51b815260206004820152602480820152600080516020615a678339815191526044820152633236b4b760e11b60648201526084015b60405180910390fd5b61089581612c90565b50565b6060600480546108a79061567d565b80601f01602080910402602001604051908101604052809291908181526020018280546108d39061567d565b80156109205780601f106108f557610100808354040283529160200191610920565b820191906000526020600020905b81548152906001019060200180831161090357829003601f168201915b5050505050905090565b6000818152600660205260408120546001600160a01b03166109a35760405162461bcd60e51b815260206004820152602c60248201527f4552433732313a20617070726f76656420717565727920666f72206e6f6e657860448201526b34b9ba32b73a103a37b5b2b760a11b6064820152608401610883565b506000908152600860205260409020546001600160a01b031690565b60006109ca826117b1565b9050806001600160a01b0316836001600160a01b031603610a535760405162461bcd60e51b815260206004820152602160248201527f4552433732313a20617070726f76616c20746f2063757272656e74206f776e6560448201527f72000000000000000000000000000000000000000000000000000000000000006064820152608401610883565b336001600160a01b0382161480610a8d57506001600160a01b038116600090815260096020908152604080832033845290915290205460ff165b610aff5760405162461bcd60e51b815260206004820152603860248201527f4552433732313a20617070726f76652063616c6c6572206973206e6f74206f7760448201527f6e6572206e6f7220617070726f76656420666f7220616c6c00000000000000006064820152608401610883565b610b098383612d8b565b505050565b6000818152600660205260409020546060906001600160a01b0316610b695760405162461bcd60e51b81526020600482015260116024820152702737b732bc34b9ba32b73a103a37b5b2b760791b6044820152606401610883565b610b7282612df9565b805480602002602001604051908101604052809291908181526020018280548015610bbc57602002820191906000526020600020905b815481526020019060010190808311610ba8575b50505050509050919050565b33610bdb6000546001600160a01b031690565b6001600160a01b03161480610bf65750610bf6600233612c6b565b610c3c5760405162461bcd60e51b815260206004820152602480820152600080516020615a678339815191526044820152633236b4b760e11b6064820152608401610883565b610b09838383612e85565b33610c5a6000546001600160a01b031690565b6001600160a01b03161480610c755750610c75600233612c6b565b610cbb5760405162461bcd60e51b815260206004820152602480820152600080516020615a678339815191526044820152633236b4b760e11b6064820152608401610883565b6000858152600660205260409020546001600160a01b0316610d135760405162461bcd60e51b81526020600482015260116024820152702737b732bc34b9ba32b73a103a37b5b2b760791b6044820152606401610883565b610d208585858585612ef4565b5050505050565b6000818152600660205260408120546001600160a01b0316610d7f5760405162461bcd60e51b81526020600482015260116024820152702737b732bc34b9ba32b73a103a37b5b2b760791b6044820152606401610883565b61080d82613043565b610d9233826130ff565b610e045760405162461bcd60e51b815260206004820152603160248201527f4552433732313a207472616e736665722063616c6c6572206973206e6f74206f60448201527f776e6572206e6f7220617070726f7665640000000000000000000000000000006064820152608401610883565b610b098383836131f6565b6000816001600160a01b0316610e2d6000546001600160a01b031690565b6001600160a01b0316148061080d575061080d600283612c6b565b6000600260015403610e9c5760405162461bcd60e51b815260206004820152601f60248201527f5265656e7472616e637947756172643a207265656e7472616e742063616c6c006044820152606401610883565b6002600155610eac600b33612c6b565b610ef85760405162461bcd60e51b815260206004820152601c60248201527f4d757374206265207265676973746572656420657874656e73696f6e000000006044820152606401610883565b610f1182604051806020016040528060008152506133ce565b6001805592915050565b60008281526006602052604081205481906001600160a01b0316610f755760405162461bcd60e51b81526020600482015260116024820152702737b732bc34b9ba32b73a103a37b5b2b760791b6044820152606401610883565b610f7f8484613448565b915091505b9250929050565b6000546001600160a01b03163314610fe55760405162461bcd60e51b815260206004820181905260248201527f4f776e61626c653a2063616c6c6572206973206e6f7420746865206f776e65726044820152606401610883565b610ff0600282612c6b565b156108955760405133906001600160a01b038316907f7c0c3c84c67c85fcac635147348bfe374c24a1a93d0366d1cfe9d8853cbf89d590600090a3611036600282613533565b5050565b3361104d6000546001600160a01b031690565b6001600160a01b031614806110685750611068600233612c6b565b6110ae5760405162461bcd60e51b815260206004820152602480820152600080516020615a678339815191526044820152633236b4b760e11b6064820152608401610883565b61103682828080601f01602080910402602001604051908101604052809392919081815260200183838082843760009201919091525061354892505050565b336111006000546001600160a01b031690565b6001600160a01b0316148061111b575061111b600233612c6b565b6111615760405162461bcd60e51b815260206004820152602480820152600080516020615a678339815191526044820152633236b4b760e11b6064820152608401610883565b8261116d600d82612c6b565b156111b25760405162461bcd60e51b8152602060048201526015602482015274115e1d195b9cda5bdb88189b1858dadb1a5cdd1959605a1b6044820152606401610883565b6111bf8484846000613568565b50505050565b60606111d160026136c7565b67ffffffffffffffff8111156111e9576111e96152d5565b604051908082528060200260200182016040528015611212578160200160208202803683370190505b50905060005b61122260026136c7565b811015611270576112346002826136d1565b828281518110611246576112466156b1565b6001600160a01b039092166020928302919091019091015280611268816156dd565b915050611218565b5090565b336112876000546001600160a01b031690565b6001600160a01b031614806112a257506112a2600233612c6b565b6112e85760405162461bcd60e51b815260206004820152602480820152600080516020615a678339815191526044820152633236b4b760e11b6064820152608401610883565b6111bf30858585856136dd565b60606002600154036113495760405162461bcd60e51b815260206004820152601f60248201527f5265656e7472616e637947756172643a207265656e7472616e742063616c6c006044820152606401610883565b6002600155611359600b33612c6b565b6113a55760405162461bcd60e51b815260206004820152601c60248201527f4d757374206265207265676973746572656420657874656e73696f6e000000006044820152606401610883565b8167ffffffffffffffff8111156113be576113be6152d5565b6040519080825280602002602001820160405280156113e7578160200160208202803683370190505b50905060005b82811015611486576114578585858481811061140b5761140b6156b1565b905060200281019061141d91906156f6565b8080601f0160208091040260200160405190810160405280939291908181526020018383808284376000920191909152506133ce92505050565b828281518110611469576114696156b1565b60209081029190910101528061147e816156dd565b9150506113ed565b50600180559392505050565b61149d600b33612c6b565b6114e95760405162461bcd60e51b815260206004820152601c60248201527f4d757374206265207265676973746572656420657874656e73696f6e000000006044820152606401610883565b61103682826000613893565b336115086000546001600160a01b031690565b6001600160a01b031614806115235750611523600233612c6b565b6115695760405162461bcd60e51b815260206004820152602480820152600080516020615a678339815191526044820152633236b4b760e11b6064820152608401610883565b83611575600d82612c6b565b156115ba5760405162461bcd60e51b8152602060048201526015602482015274115e1d195b9cda5bdb88189b1858dadb1a5cdd1959605a1b6044820152606401610883565b610d2085858585613568565b610b098383836040518060200160405280600081525061241f565b6002600154036116335760405162461bcd60e51b815260206004820152601f60248201527f5265656e7472616e637947756172643a207265656e7472616e742063616c6c006044820152606401610883565b600260015561164233826130ff565b61168e5760405162461bcd60e51b815260206004820181905260248201527f43616c6c6572206973206e6f74206f776e6572206e6f7220617070726f7665646044820152606401610883565b6000611699826117b1565b90506116a4826138d0565b6116ae8183613977565b505060018055565b6116c1600b33612c6b565b61170d5760405162461bcd60e51b815260206004820152601c60248201527f4d757374206265207265676973746572656420657874656e73696f6e000000006044820152606401610883565b8251811461174d5760405162461bcd60e51b815260206004820152600d60248201526c125b9d985b1a59081a5b9c1d5d609a1b6044820152606401610883565b60005b83518110156111bf5761179f84828151811061176e5761176e6156b1565b6020026020010151848484818110611788576117886156b1565b905060200281019061179a91906156f6565b613a8d565b806117a9816156dd565b915050611750565b6000818152600660205260408120546001600160a01b03168061080d5760405162461bcd60e51b815260206004820152602960248201527f4552433732313a206f776e657220717565727920666f72206e6f6e657869737460448201527f656e7420746f6b656e00000000000000000000000000000000000000000000006064820152608401610883565b611847600b33612c6b565b6118935760405162461bcd60e51b815260206004820152601c60248201527f4d757374206265207265676973746572656420657874656e73696f6e000000006044820152606401610883565b6110368282613ae3565b6000546001600160a01b031633146118f75760405162461bcd60e51b815260206004820181905260248201527f4f776e61626c653a2063616c6c6572206973206e6f7420746865206f776e65726044820152606401610883565b611902600282612c6b565b6108955760405133906001600160a01b038316907f7e1a1a08d52e4ba0e21554733d66165fd5151f99460116223d9e3a608eec5cb190600090a3611036600282613afd565b60006001600160a01b0382166119c55760405162461bcd60e51b815260206004820152602960248201527f4552433732313a2061646472657373207a65726f206973206e6f74206120766160448201527f6c6964206f776e657200000000000000000000000000000000000000000000006064820152608401610883565b506001600160a01b031660009081526007602052604090205490565b6000546001600160a01b03163314611a3b5760405162461bcd60e51b815260206004820181905260248201527f4f776e61626c653a2063616c6c6572206973206e6f7420746865206f776e65726044820152606401610883565b611a456000613b12565b565b6000600260015403611a9b5760405162461bcd60e51b815260206004820152601f60248201527f5265656e7472616e637947756172643a207265656e7472616e742063616c6c006044820152606401610883565b600260015533611ab36000546001600160a01b031690565b6001600160a01b03161480611ace5750611ace600233612c6b565b611b145760405162461bcd60e51b815260206004820152602480820152600080516020615a678339815191526044820152633236b4b760e11b6064820152608401610883565b610f118260405180602001604052806000815250613b62565b6000600260015403611b815760405162461bcd60e51b815260206004820152601f60248201527f5265656e7472616e637947756172643a207265656e7472616e742063616c6c006044820152606401610883565b600260015533611b996000546001600160a01b031690565b6001600160a01b03161480611bb45750611bb4600233612c6b565b611bfa5760405162461bcd60e51b815260206004820152602480820152600080516020615a678339815191526044820152633236b4b760e11b6064820152608401610883565b611c3a8484848080601f016020809104026020016040519081016040528093929190818152602001838380828437600092019190915250613b6292505050565b60018055949350505050565b6060600260015403611c9a5760405162461bcd60e51b815260206004820152601f60248201527f5265656e7472616e637947756172643a207265656e7472616e742063616c6c006044820152606401610883565b600260015533611cb26000546001600160a01b031690565b6001600160a01b03161480611ccd5750611ccd600233612c6b565b611d135760405162461bcd60e51b815260206004820152602480820152600080516020615a678339815191526044820152633236b4b760e11b6064820152608401610883565b8167ffffffffffffffff811115611d2c57611d2c6152d5565b604051908082528060200260200182016040528015611d55578160200160208202803683370190505b50905060005b8281101561148657611dc585858584818110611d7957611d796156b1565b9050602002810190611d8b91906156f6565b8080601f016020809104026020016040519081016040528093929190818152602001838380828437600092019190915250613b6292505050565b828281518110611dd757611dd76156b1565b602090810291909101015280611dec816156dd565b915050611d5b565b611dff600b33612c6b565b611e4b5760405162461bcd60e51b815260206004820152601c60248201527f4d757374206265207265676973746572656420657874656e73696f6e000000006044820152606401610883565b610b09838383613893565b6060611e62600b6136c7565b67ffffffffffffffff811115611e7a57611e7a6152d5565b604051908082528060200260200182016040528015611ea3578160200160208202803683370190505b50905060005b611eb3600b6136c7565b81101561127057611ec5600b826136d1565b828281518110611ed757611ed76156b1565b6001600160a01b039092166020928302919091019091015280611ef9816156dd565b915050611ea9565b6060600580546108a79061567d565b33611f236000546001600160a01b031690565b6001600160a01b03161480611f3e5750611f3e600233612c6b565b611f845760405162461bcd60e51b815260206004820152602480820152600080516020615a678339815191526044820152633236b4b760e11b6064820152608401610883565b6110368282613ba5565b611036338383613bbf565b33611fac6000546001600160a01b031690565b6001600160a01b03161480611fc75750611fc7600233612c6b565b61200d5760405162461bcd60e51b815260206004820152602480820152600080516020615a678339815191526044820152633236b4b760e11b6064820152608401610883565b8251811461204d5760405162461bcd60e51b815260206004820152600d60248201526c125b9d985b1a59081a5b9c1d5d609a1b6044820152606401610883565b60005b83518110156111bf5761209f84828151811061206e5761206e6156b1565b6020026020010151848484818110612088576120886156b1565b905060200281019061209a91906156f6565b612e85565b806120a9816156dd565b915050612050565b6120bc600b33612c6b565b6121085760405162461bcd60e51b815260206004820152601c60248201527f4d757374206265207265676973746572656420657874656e73696f6e000000006044820152606401610883565b80158061213a575061213a337f99cdaa2200000000000000000000000000000000000000000000000000000000613c8d565b6121ac5760405162461bcd60e51b815260206004820152603f60248201527f457874656e73696f6e206d75737420696d706c656d656e74204945524337323160448201527f43726561746f72457874656e73696f6e417070726f76655472616e73666572006064820152608401610883565b3360009081526010602052604090205460ff161515811515146108955733600081815260106020908152604091829020805460ff191685151590811790915591519182527f072a7592283e2c2d1d56d21517ff6013325e0f55483f4828373ff4d98b0a1a36910160405180910390a250565b60606002600154036122725760405162461bcd60e51b815260206004820152601f60248201527f5265656e7472616e637947756172643a207265656e7472616e742063616c6c006044820152606401610883565b60026001553361228a6000546001600160a01b031690565b6001600160a01b031614806122a557506122a5600233612c6b565b6122eb5760405162461bcd60e51b815260206004820152602480820152600080516020615a678339815191526044820152633236b4b760e11b6064820152608401610883565b8161ffff1667ffffffffffffffff811115612308576123086152d5565b604051908082528060200260200182016040528015612331578160200160208202803683370190505b50905060005b8261ffff168161ffff161015612393576123608460405180602001604052806000815250613b62565b828261ffff1681518110612376576123766156b1565b60209081029190910101528061238b8161573d565b915050612337565b506001805592915050565b336123b16000546001600160a01b031690565b6001600160a01b031614806123cc57506123cc600233612c6b565b6124125760405162461bcd60e51b815260206004820152602480820152600080516020615a678339815191526044820152633236b4b760e11b6064820152608401610883565b610d2085858585856136dd565b61242933836130ff565b61249b5760405162461bcd60e51b815260206004820152603160248201527f4552433732313a207472616e736665722063616c6c6572206973206e6f74206f60448201527f776e6572206e6f7220617070726f7665640000000000000000000000000000006064820152608401610883565b6111bf84848484613ca9565b6000818152600660205260409020546060906001600160a01b03166125025760405162461bcd60e51b81526020600482015260116024820152702737b732bc34b9ba32b73a103a37b5b2b760791b6044820152606401610883565b61250b82613d27565b805480602002602001604051908101604052809291908181526020018280548015610bbc57602002820191906000526020600020905b81546001600160a01b031681526001909101906020018083116125415750505050509050919050565b60608061258e836000908152600660205260409020546001600160a01b0316151590565b6125ce5760405162461bcd60e51b81526020600482015260116024820152702737b732bc34b9ba32b73a103a37b5b2b760791b6044820152606401610883565b6125d783613db3565b81546040805160208084028201810190925282815291849183018282801561262857602002820191906000526020600020905b81546001600160a01b0316815260019091019060200180831161260a575b505050505091508080548060200260200160405190810160405280929190818152602001828054801561267a57602002820191906000526020600020905b815481526020019060010190808311612666575b5050505050905091509150915091565b6000818152600660205260409020546060906001600160a01b03166126e55760405162461bcd60e51b81526020600482015260116024820152702737b732bc34b9ba32b73a103a37b5b2b760791b6044820152606401610883565b61080d82613dd1565b336127016000546001600160a01b031690565b6001600160a01b0316148061271c575061271c600233612c6b565b6127625760405162461bcd60e51b815260206004820152602480820152600080516020615a678339815191526044820152633236b4b760e11b6064820152608401610883565b61089581614073565b60606002600154036127bf5760405162461bcd60e51b815260206004820152601f60248201527f5265656e7472616e637947756172643a207265656e7472616e742063616c6c006044820152606401610883565b60026001556127cf600b33612c6b565b61281b5760405162461bcd60e51b815260206004820152601c60248201527f4d757374206265207265676973746572656420657874656e73696f6e000000006044820152606401610883565b8161ffff1667ffffffffffffffff811115612838576128386152d5565b604051908082528060200260200182016040528015612861578160200160208202803683370190505b50905060005b8261ffff168161ffff1610156123935761289084604051806020016040528060008152506133ce565b828261ffff16815181106128a6576128a66156b1565b6020908102919091010152806128bb8161573d565b915050612867565b6128ce600b33612c6b565b61291a5760405162461bcd60e51b815260206004820152601c60248201527f4d757374206265207265676973746572656420657874656e73696f6e000000006044820152606401610883565b610b09838383613a8d565b336129386000546001600160a01b031690565b6001600160a01b031614806129535750612953600233612c6b565b6129995760405162461bcd60e51b815260206004820152602480820152600080516020615a678339815191526044820152633236b4b760e11b6064820152608401610883565b61103682826140c4565b6000546001600160a01b031633146129fd5760405162461bcd60e51b815260206004820181905260248201527f4f776e61626c653a2063616c6c6572206973206e6f7420746865206f776e65726044820152606401610883565b6001600160a01b038116612a795760405162461bcd60e51b815260206004820152602660248201527f4f776e61626c653a206e6577206f776e657220697320746865207a65726f206160448201527f64647265737300000000000000000000000000000000000000000000000000006064820152608401610883565b61089581613b12565b6000600260015403612ad65760405162461bcd60e51b815260206004820152601f60248201527f5265656e7472616e637947756172643a207265656e7472616e742063616c6c006044820152606401610883565b6002600155612ae6600b33612c6b565b612b325760405162461bcd60e51b815260206004820152601c60248201527f4d757374206265207265676973746572656420657874656e73696f6e000000006044820152606401610883565b611c3a8484848080601f0160208091040260200160405190810160405280939291908181526020018383808284376000920191909152506133ce92505050565b60006001600160e01b031982167f9088c20700000000000000000000000000000000000000000000000000000000148061080d575061080d82614207565b60006001600160e01b031982167f80ac58cd0000000000000000000000000000000000000000000000000000000014806107fe57506001600160e01b031982167f5b5e139f00000000000000000000000000000000000000000000000000000000148061080d575061080d825b60006001600160e01b031982167f553e757e00000000000000000000000000000000000000000000000000000000148061080d57506301ffc9a760e01b6001600160e01b031983161461080d565b6001600160a01b038116600090815260018301602052604081205415155b9392505050565b306001600160a01b03821603612ce85760405162461bcd60e51b815260206004820152601960248201527f43616e6e6f7420626c61636b6c69737420796f757273656c66000000000000006044820152606401610883565b612cf3600b82612c6b565b15612d3b5760405133906001600160a01b038316907fd19cf84cf0fec6bec9ddfa29c63adf83a55707c712f32c8285d6180a7890147990600090a3612d39600b82613533565b505b612d46600d82612c6b565b6108955760405133906001600160a01b038316907f05ac7bc5a606cd92a63365f9fda244499b9add0526b22d99937b6bd88181059c90600090a3611036600d82613afd565b600081815260086020526040902080546001600160a01b0319166001600160a01b0384169081179091558190612dc0826117b1565b6001600160a01b03167f8c5be1e5ebec7d5bd14f71427d1e84f3dd0314c0f7b2291e5b200ac8c7c3b92560405160405180910390a45050565b60008181526019602052604081205415612e1f5750600090815260196020526040902090565b6000828152601160209081526040808320546001600160a01b03168352601790915290205415612e7157506000908152601160209081526040808320546001600160a01b031683526017909152902090565b505030600090815260176020526040902090565b6000838152601160205260409020546001600160a01b03163014612edb5760405162461bcd60e51b815260206004820152600d60248201526c24b73b30b634b2103a37b5b2b760991b6044820152606401610883565b60008381526015602052604090206111bf908383614c01565b828114612f335760405162461bcd60e51b815260206004820152600d60248201526c125b9d985b1a59081a5b9c1d5d609a1b6044820152606401610883565b6000805b82811015612f7757838382818110612f5157612f516156b1565b9050602002013582612f63919061575e565b915080612f6f816156dd565b915050612f37565b506127108110612fc95760405162461bcd60e51b815260206004820152601760248201527f496e76616c696420746f74616c20726f79616c746965730000000000000000006044820152606401610883565b6000868152601860205260409020612fe2908686614c81565b506000868152601960205260409020612ffc908484614cd4565b50857fabb46fe0761d77584bde75697647804ffd8113abd4d8d06bc664150395eccdee868686866040516130339493929190615776565b60405180910390a2505050505050565b6000818152601160205260409020546001600160a01b03163081036130aa5760405162461bcd60e51b815260206004820152601660248201527f4e6f20657874656e73696f6e20666f7220746f6b656e000000000000000000006044820152606401610883565b6130b5600d82612c6b565b156130fa5760405162461bcd60e51b8152602060048201526015602482015274115e1d195b9cda5bdb88189b1858dadb1a5cdd1959605a1b6044820152606401610883565b919050565b6000818152600660205260408120546001600160a01b03166131785760405162461bcd60e51b815260206004820152602c60248201527f4552433732313a206f70657261746f7220717565727920666f72206e6f6e657860448201526b34b9ba32b73a103a37b5b2b760a11b6064820152608401610883565b6000613183836117b1565b9050806001600160a01b0316846001600160a01b031614806131ca57506001600160a01b0380821660009081526009602090815260408083209388168352929052205460ff165b806131ee5750836001600160a01b03166131e38461092a565b6001600160a01b0316145b949350505050565b826001600160a01b0316613209826117b1565b6001600160a01b0316146132855760405162461bcd60e51b815260206004820152602560248201527f4552433732313a207472616e736665722066726f6d20696e636f72726563742060448201527f6f776e65720000000000000000000000000000000000000000000000000000006064820152608401610883565b6001600160a01b0382166133005760405162461bcd60e51b8152602060048201526024808201527f4552433732313a207472616e7366657220746f20746865207a65726f2061646460448201527f72657373000000000000000000000000000000000000000000000000000000006064820152608401610883565b61330b83838361431a565b613316600082612d8b565b6001600160a01b038316600090815260076020526040812080546001929061333f908490615813565b90915550506001600160a01b038216600090815260076020526040812080546001929061336d90849061575e565b909155505060008181526006602052604080822080546001600160a01b0319166001600160a01b0386811691821790925591518493918716917fddf252ad1be2c89b69c2b068fc378daa952ba7f163c4a11628f55a4df523b3ef91a4505050565b600a8054600091826133df836156dd565b9190505550600a5490506133f38382614325565b600081815260116020526040902080546001600160a01b0319163317905561341b83826143b9565b815115613443576000818152601560209081526040909120835161344192850190614d0e565b505b61080d565b600080600061345685613d27565b8054909150600110156134ab5760405162461bcd60e51b815260206004820152601c60248201527f4d6f7265207468616e203120726f79616c7479207265636569766572000000006044820152606401610883565b80546000036134c1573060009250925050610f84565b806000815481106134d4576134d46156b1565b6000918252602090912001546001600160a01b0316612710856134f688612df9565b600081548110613508576135086156b1565b906000526020600020015461351d919061582a565b613527919061585f565b92509250509250929050565b6000612c89836001600160a01b0384166143d3565b306000908152601260209081526040909120825161103692840190614d0e565b306001600160a01b038516036135c05760405162461bcd60e51b815260206004820152601060248201527f43726561746f723a20496e76616c6964000000000000000000000000000000006044820152606401610883565b6001600160a01b0384163b61363d5760405162461bcd60e51b815260206004820152602560248201527f43726561746f723a20457874656e73696f6e206d757374206265206120636f6e60448201527f74726163740000000000000000000000000000000000000000000000000000006064820152608401610883565b613648600b85612c6b565b6111bf576001600160a01b038416600090815260126020526040902061366f908484614c01565b506001600160a01b038416600081815260136020526040808220805460ff1916851515179055513392917fd8cb8ba4086944eabf43c5535b7712015e4d4c714b24bf812c040ea5b7a3e42a91a3610d20600b85613afd565b600061080d825490565b6000612c8983836144c6565b82811461371c5760405162461bcd60e51b815260206004820152600d60248201526c125b9d985b1a59081a5b9c1d5d609a1b6044820152606401610883565b6000805b828110156137605783838281811061373a5761373a6156b1565b905060200201358261374c919061575e565b915080613758816156dd565b915050613720565b5061271081106137b25760405162461bcd60e51b815260206004820152601760248201527f496e76616c696420746f74616c20726f79616c746965730000000000000000006044820152606401610883565b6001600160a01b03861660009081526016602052604090206137d5908686614c81565b506001600160a01b03861660009081526017602052604090206137f9908484614cd4565b50306001600160a01b0387160361384c577f2b6849d5976d799a5b0ca4dfd6b40a3d7afe9ea72c091fa01a958594f9a2659b8585858560405161383f9493929190615776565b60405180910390a161388b565b856001600160a01b03167f535a93d2cb000582c0ebeaa9be4890ec6a287f98eb2df00c54c300612fd78d8f868686866040516130339493929190615776565b505050505050565b3360009081526012602052604090206138ad908484614c01565b50336000908152601360205260409020805460ff19169115159190911790555050565b60006138db826117b1565b90506138e98160008461431a565b6138f4600083612d8b565b6001600160a01b038116600090815260076020526040812080546001929061391d908490615813565b909155505060008281526006602052604080822080546001600160a01b0319169055518391906001600160a01b038416907fddf252ad1be2c89b69c2b068fc378daa952ba7f163c4a11628f55a4df523b3ef908390a45050565b6000818152601160205260409020546001600160a01b03163014613a37576000818152601160205260409020546139be906001600160a01b03166311686e4b60e21b613c8d565b15613a3757600081815260116020526040908190205490516311686e4b60e21b81526001600160a01b03848116600483015260248201849052909116906345a1b92c90604401600060405180830381600087803b158015613a1e57600080fd5b505af1158015613a32573d6000803e3d6000fd5b505050505b60008181526015602052604090208054613a509061567d565b159050613a6e576000818152601560205260408120613a6e91614d82565b600090815260116020526040902080546001600160a01b031916905550565b6000838152601160205260409020546001600160a01b03163314612edb5760405162461bcd60e51b815260206004820152600d60248201526c24b73b30b634b2103a37b5b2b760991b6044820152606401610883565b336000908152601460205260409020610b09908383614c01565b6000612c89836001600160a01b0384166144f0565b600080546001600160a01b038381166001600160a01b0319831681178455604051919092169283917f8be0079c531659141344cd1fd0a4f28419497f9722a3daafe3b4186f6b6457e09190a35050565b600a805460009182613b73836156dd565b9091555050600a54600081815260116020526040902080546001600160a01b03191630179055905061341b83826143b9565b306000908152601460205260409020610b09908383614c01565b816001600160a01b0316836001600160a01b031603613c205760405162461bcd60e51b815260206004820152601960248201527f4552433732313a20617070726f766520746f2063616c6c6572000000000000006044820152606401610883565b6001600160a01b03838116600081815260096020908152604080832094871680845294825291829020805460ff191686151590811790915591519182527f17307eab39ab6107e8899845ad3d59bd9653f200f220920489ca2b5937696c31910160405180910390a3505050565b6000613c988361453f565b8015612c895750612c898383614572565b613cb48484846131f6565b613cc084848484614670565b6111bf5760405162461bcd60e51b815260206004820152603260248201527f4552433732313a207472616e7366657220746f206e6f6e20455243373231526560448201527131b2b4bb32b91034b6b83632b6b2b73a32b960711b6064820152608401610883565b60008181526018602052604081205415613d4d5750600090815260186020526040902090565b6000828152601160209081526040808320546001600160a01b03168352601690915290205415613d9f57506000908152601160209081526040808320546001600160a01b031683526016909152902090565b505030600090815260166020526040902090565b600080613dbf83613d27565b613dc884612df9565b91509150915091565b6000818152601160205260409020546060906001600160a01b0316613df7600d82612c6b565b15613e3c5760405162461bcd60e51b8152602060048201526015602482015274115e1d195b9cda5bdb88189b1858dadb1a5cdd1959605a1b6044820152606401610883565b60008381526015602052604090208054613e559061567d565b159050613f6f576001600160a01b03811660009081526014602052604090208054613e7f9061567d565b159050613ed0576001600160a01b038116600090815260146020908152604080832086845260158352928190209051613eb993920161590c565b604051602081830303815290604052915050919050565b60008381526015602052604090208054613ee99061567d565b80601f0160208091040260200160405190810160405280929190818152602001828054613f159061567d565b8015613f625780601f10613f3757610100808354040283529160200191613f62565b820191906000526020600020905b815481529060010190602001808311613f4557829003601f168201915b5050505050915050919050565b613f808163e9dc637560e01b613c8d565b15613ff85760405163e9dc637560e01b8152306004820152602481018490526001600160a01b0382169063e9dc637590604401600060405180830381865afa158015613fd0573d6000803e3d6000fd5b505050506040513d6000823e601f3d908101601f19168201604052612c899190810190615921565b6001600160a01b03811660009081526013602052604090205460ff1661404a576001600160a01b0381166000908152601260205260409020614039846147bc565b604051602001613eb992919061598f565b6001600160a01b03811660009081526012602052604090208054613ee99061567d565b50919050565b61407e600b82612c6b565b156108955760405133906001600160a01b038316907fd19cf84cf0fec6bec9ddfa29c63adf83a55707c712f32c8285d6180a7890147990600090a3611036600b82613533565b6140cf600b83612c6b565b61411b5760405162461bcd60e51b815260206004820152601e60248201527f43726561746f72436f72653a20496e76616c696420657874656e73696f6e00006044820152606401610883565b6001600160a01b038116158061413d575061413d81631e05385b60e31b613c8d565b6141895760405162461bcd60e51b815260206004820152600f60248201527f496e76616c6964206164647265737300000000000000000000000000000000006044820152606401610883565b6001600160a01b038281166000908152600f6020526040902054811690821614611036576001600160a01b038281166000818152600f602052604080822080546001600160a01b031916948616948517905551339392917f6a835c4fcf7e0d398db3762332fdaa1471814ad39f1e2d6d0b3fdabf8efee3e091a45050565b60006001600160e01b031982167f28f10a21000000000000000000000000000000000000000000000000000000001480614245575061424582612bb0565b8061427957506001600160e01b031982167fbb3bafd600000000000000000000000000000000000000000000000000000000145b806142ad57506001600160e01b031982167fb779958400000000000000000000000000000000000000000000000000000000145b806142e157506001600160e01b031982167fd5a06d4c00000000000000000000000000000000000000000000000000000000145b8061080d57506001600160e01b031982167f2a55205a000000000000000000000000000000000000000000000000000000001492915050565b610b098383836148f1565b336000908152600f60205260409020546001600160a01b03161561103657336000818152600f602052604090819020549051631e05385b60e31b815260048101929092526001600160a01b03848116602484015260448301849052169063f029c2d890606401600060405180830381600087803b1580156143a557600080fd5b505af115801561388b573d6000803e3d6000fd5b611036828260405180602001604052806000815250614a35565b600081815260018301602052604081205480156144bc5760006143f7600183615813565b855490915060009061440b90600190615813565b905081811461447057600086600001828154811061442b5761442b6156b1565b906000526020600020015490508087600001848154811061444e5761444e6156b1565b6000918252602080832090910192909255918252600188019052604090208390555b8554869080614481576144816159b4565b60019003818190600052602060002001600090559055856001016000868152602001908152602001600020600090556001935050505061080d565b600091505061080d565b60008260000182815481106144dd576144dd6156b1565b9060005260206000200154905092915050565b60008181526001830160205260408120546145375750815460018181018455600084815260208082209093018490558454848252828601909352604090209190915561080d565b50600061080d565b6000614552826301ffc9a760e01b614572565b801561080d575061456b826001600160e01b0319614572565b1592915050565b604080516001600160e01b0319831660248083019190915282518083039091018152604490910182526020810180517bffffffffffffffffffffffffffffffffffffffffffffffffffffffff166301ffc9a760e01b179052905160009190829081906001600160a01b03871690617530906145ee9086906159ca565b6000604051808303818686fa925050503d806000811461462a576040519150601f19603f3d011682016040523d82523d6000602084013e61462f565b606091505b509150915060208151101561464a576000935050505061080d565b81801561466657508080602001905181019061466691906159e6565b9695505050505050565b60006001600160a01b0384163b156147b157604051630a85bd0160e11b81526001600160a01b0385169063150b7a02906146b4903390899088908890600401615a03565b6020604051808303816000875af19250505080156146ef575060408051601f3d908101601f191682019092526146ec91810190615a35565b60015b614797573d80801561471d576040519150601f19603f3d011682016040523d82523d6000602084013e614722565b606091505b50805160000361478f5760405162461bcd60e51b815260206004820152603260248201527f4552433732313a207472616e7366657220746f206e6f6e20455243373231526560448201527131b2b4bb32b91034b6b83632b6b2b73a32b960711b6064820152608401610883565b805181602001fd5b6001600160e01b031916630a85bd0160e11b1490506131ee565b506001949350505050565b6060816000036147ff57505060408051808201909152600181527f3000000000000000000000000000000000000000000000000000000000000000602082015290565b8160005b81156148295780614813816156dd565b91506148229050600a8361585f565b9150614803565b60008167ffffffffffffffff811115614844576148446152d5565b6040519080825280601f01601f19166020018201604052801561486e576020820181803683370190505b5090505b84156131ee57614883600183615813565b9150614890600a86615a52565b61489b90603061575e565b60f81b8183815181106148b0576148b06156b1565b60200101907effffffffffffffffffffffffffffffffffffffffffffffffffffffffffffff1916908160001a9053506148ea600a8661585f565b9450614872565b6000818152601160209081526040808320546001600160a01b03168352601090915290205460ff1615610b0957600081815260116020526040908190205490517f825808050000000000000000000000000000000000000000000000000000000081526001600160a01b038581166004830152848116602483015260448201849052909116906382580805906064016020604051808303816000875af115801561499f573d6000803e3d6000fd5b505050506040513d601f19601f820116820180604052508101906149c391906159e6565b610b095760405162461bcd60e51b815260206004820152602960248201527f45524337323143726561746f723a20457874656e73696f6e20617070726f766160448201527f6c206661696c75726500000000000000000000000000000000000000000000006064820152608401610883565b614a3f8383614ab3565b614a4c6000848484614670565b610b095760405162461bcd60e51b815260206004820152603260248201527f4552433732313a207472616e7366657220746f206e6f6e20455243373231526560448201527131b2b4bb32b91034b6b83632b6b2b73a32b960711b6064820152608401610883565b6001600160a01b038216614b095760405162461bcd60e51b815260206004820181905260248201527f4552433732313a206d696e7420746f20746865207a65726f20616464726573736044820152606401610883565b6000818152600660205260409020546001600160a01b031615614b6e5760405162461bcd60e51b815260206004820152601c60248201527f4552433732313a20746f6b656e20616c7265616479206d696e746564000000006044820152606401610883565b614b7a6000838361431a565b6001600160a01b0382166000908152600760205260408120805460019290614ba390849061575e565b909155505060008181526006602052604080822080546001600160a01b0319166001600160a01b03861690811790915590518392907fddf252ad1be2c89b69c2b068fc378daa952ba7f163c4a11628f55a4df523b3ef908290a45050565b828054614c0d9061567d565b90600052602060002090601f016020900481019282614c2f5760008555614c75565b82601f10614c485782800160ff19823516178555614c75565b82800160010185558215614c75579182015b82811115614c75578235825591602001919060010190614c5a565b50611270929150614db8565b828054828255906000526020600020908101928215614c75579160200282015b82811115614c755781546001600160a01b0319166001600160a01b03843516178255602090920191600190910190614ca1565b828054828255906000526020600020908101928215614c755791602002820182811115614c75578235825591602001919060010190614c5a565b828054614d1a9061567d565b90600052602060002090601f016020900481019282614d3c5760008555614c75565b82601f10614d5557805160ff1916838001178555614c75565b82800160010185558215614c75579182015b82811115614c75578251825591602001919060010190614d67565b508054614d8e9061567d565b6000825580601f10614d9e575050565b601f01602090049060005260206000209081019061089591905b5b808211156112705760008155600101614db9565b6001600160e01b03198116811461089557600080fd5b600060208284031215614df557600080fd5b8135612c8981614dcd565b6001600160a01b038116811461089557600080fd5b600060208284031215614e2757600080fd5b8135612c8981614e00565b60005b83811015614e4d578181015183820152602001614e35565b838111156111bf5750506000910152565b60008151808452614e76816020860160208601614e32565b601f01601f19169290920160200192915050565b602081526000612c896020830184614e5e565b600060208284031215614eaf57600080fd5b5035919050565b60008060408385031215614ec957600080fd5b8235614ed481614e00565b946020939093013593505050565b600081518084526020808501945080840160005b83811015614f1257815187529582019590820190600101614ef6565b509495945050505050565b602081526000612c896020830184614ee2565b60008083601f840112614f4257600080fd5b50813567ffffffffffffffff811115614f5a57600080fd5b602083019150836020828501011115610f8457600080fd5b600080600060408486031215614f8757600080fd5b83359250602084013567ffffffffffffffff811115614fa557600080fd5b614fb186828701614f30565b9497909650939450505050565b60008083601f840112614fd057600080fd5b50813567ffffffffffffffff811115614fe857600080fd5b6020830191508360208260051b8501011115610f8457600080fd5b60008060008060006060868803121561501b57600080fd5b85359450602086013567ffffffffffffffff8082111561503a57600080fd5b61504689838a01614fbe565b9096509450604088013591508082111561505f57600080fd5b5061506c88828901614fbe565b969995985093965092949392505050565b60008060006060848603121561509257600080fd5b833561509d81614e00565b925060208401356150ad81614e00565b929592945050506040919091013590565b600080604083850312156150d157600080fd5b50508035926020909101359150565b600080602083850312156150f357600080fd5b823567ffffffffffffffff81111561510a57600080fd5b61511685828601614f30565b90969095509350505050565b60008060006040848603121561513757600080fd5b833561514281614e00565b9250602084013567ffffffffffffffff811115614fa557600080fd5b6020808252825182820181905260009190848201906040850190845b8181101561519f5783516001600160a01b03168352928401929184019160010161517a565b50909695505050505050565b600080600080604085870312156151c157600080fd5b843567ffffffffffffffff808211156151d957600080fd5b6151e588838901614fbe565b909650945060208701359150808211156151fe57600080fd5b5061520b87828801614fbe565b95989497509550505050565b60008060006040848603121561522c57600080fd5b833561523781614e00565b9250602084013567ffffffffffffffff81111561525357600080fd5b614fb186828701614fbe565b801515811461089557600080fd5b6000806000806060858703121561528357600080fd5b843561528e81614e00565b9350602085013567ffffffffffffffff8111156152aa57600080fd5b6152b687828801614f30565b90945092505060408501356152ca8161525f565b939692955090935050565b634e487b7160e01b600052604160045260246000fd5b604051601f8201601f1916810167ffffffffffffffff81118282101715615314576153146152d5565b604052919050565b60008060006040848603121561533157600080fd5b833567ffffffffffffffff8082111561534957600080fd5b818601915086601f83011261535d57600080fd5b8135602082821115615371576153716152d5565b8160051b6153808282016152eb565b928352848101820192828101908b85111561539a57600080fd5b958301955b848710156153b85786358252958301959083019061539f565b98505050870135925050808211156153cf57600080fd5b50614fb186828701614fbe565b6000806000604084860312156153f157600080fd5b833567ffffffffffffffff81111561540857600080fd5b61541486828701614f30565b90945092505060208401356154288161525f565b809150509250925092565b6000806040838503121561544657600080fd5b823561545181614e00565b915060208301356154618161525f565b809150509250929050565b60006020828403121561547e57600080fd5b8135612c898161525f565b6000806040838503121561549c57600080fd5b82356154a781614e00565b9150602083013561ffff8116811461546157600080fd5b6000806000806000606086880312156154d657600080fd5b85356154e181614e00565b9450602086013567ffffffffffffffff8082111561503a57600080fd5b600067ffffffffffffffff821115615518576155186152d5565b50601f01601f191660200190565b6000806000806080858703121561553c57600080fd5b843561554781614e00565b9350602085013561555781614e00565b925060408501359150606085013567ffffffffffffffff81111561557a57600080fd5b8501601f8101871361558b57600080fd5b803561559e615599826154fe565b6152eb565b8181528860208385010111156155b357600080fd5b8160208401602083013760006020838301015280935050505092959194509250565b600081518084526020808501945080840160005b83811015614f125781516001600160a01b0316875295820195908201906001016155e9565b602081526000612c8960208301846155d5565b60408152600061563460408301856155d5565b82810360208401526156468185614ee2565b95945050505050565b6000806040838503121561566257600080fd5b823561566d81614e00565b9150602083013561546181614e00565b600181811c9082168061569157607f821691505b60208210810361406d57634e487b7160e01b600052602260045260246000fd5b634e487b7160e01b600052603260045260246000fd5b634e487b7160e01b600052601160045260246000fd5b6000600182016156ef576156ef6156c7565b5060010190565b6000808335601e1984360301811261570d57600080fd5b83018035915067ffffffffffffffff82111561572857600080fd5b602001915036819003821315610f8457600080fd5b600061ffff808316818103615754576157546156c7565b6001019392505050565b60008219821115615771576157716156c7565b500190565b6040808252810184905260008560608301825b878110156157b957823561579c81614e00565b6001600160a01b0316825260209283019290910190600101615789565b5083810360208501528481527f07ffffffffffffffffffffffffffffffffffffffffffffffffffffffffffffff8511156157f257600080fd5b8460051b915081866020830137600091016020019081529695505050505050565b600082821015615825576158256156c7565b500390565b6000816000190483118215151615615844576158446156c7565b500290565b634e487b7160e01b600052601260045260246000fd5b60008261586e5761586e615849565b500490565b8054600090600181811c908083168061588d57607f831692505b602080841082036158ae57634e487b7160e01b600052602260045260246000fd5b8180156158c257600181146158d357615900565b60ff19861689528489019650615900565b60008881526020902060005b868110156158f85781548b8201529085019083016158df565b505084890196505b50505050505092915050565b60006131ee61591b8386615873565b84615873565b60006020828403121561593357600080fd5b815167ffffffffffffffff81111561594a57600080fd5b8201601f8101841361595b57600080fd5b8051615969615599826154fe565b81815285602083850101111561597e57600080fd5b615646826020830160208601614e32565b600061599b8285615873565b83516159ab818360208801614e32565b01949350505050565b634e487b7160e01b600052603160045260246000fd5b600082516159dc818460208701614e32565b9190910192915050565b6000602082840312156159f857600080fd5b8151612c898161525f565b60006001600160a01b038087168352808616602084015250836040830152608060608301526146666080830184614e5e565b600060208284031215615a4757600080fd5b8151612c8981614dcd565b600082615a6157615a61615849565b50069056fe41646d696e436f6e74726f6c3a204d757374206265206f776e6572206f722061a26469706673582212207850c7ede42f261870c0a962a29755fbb752842a7f0dae2ec3a5d01bf09757bf64736f6c634300080d0033",
    "linkReferences": {}
  }
}